{
  "contractName": "SafeMath",
  "abi": [
    {
      "constant": true,
      "inputs": [
        {
          "name": "a",
          "type": "uint256"
        },
        {
          "name": "b",
          "type": "uint256"
        }
      ],
      "name": "safeAdd",
      "outputs": [
        {
          "name": "c",
          "type": "uint256"
        }
      ],
      "payable": false,
      "stateMutability": "pure",
      "type": "function"
    },
    {
      "constant": true,
      "inputs": [
        {
          "name": "a",
          "type": "uint256"
        },
        {
          "name": "b",
          "type": "uint256"
        }
      ],
      "name": "safeSub",
      "outputs": [
        {
          "name": "c",
          "type": "uint256"
        }
      ],
      "payable": false,
      "stateMutability": "pure",
      "type": "function"
    },
    {
      "constant": true,
      "inputs": [
        {
          "name": "a",
          "type": "uint256"
        },
        {
          "name": "b",
          "type": "uint256"
        }
      ],
      "name": "safeMul",
      "outputs": [
        {
          "name": "c",
          "type": "uint256"
        }
      ],
      "payable": false,
      "stateMutability": "pure",
      "type": "function"
    },
    {
      "constant": true,
      "inputs": [
        {
          "name": "a",
          "type": "uint256"
        },
        {
          "name": "b",
          "type": "uint256"
        }
      ],
      "name": "safeDiv",
      "outputs": [
        {
          "name": "c",
          "type": "uint256"
        }
      ],
      "payable": false,
      "stateMutability": "pure",
      "type": "function"
    }
  ],
  "bytecode": "0x608060405234801561001057600080fd5b50610284806100206000396000f3fe608060405260043610610062576000357c0100000000000000000000000000000000000000000000000000000000900463ffffffff168063a293d1e814610067578063b5931f7c146100c0578063d05c78da14610119578063e6cb901314610172575b600080fd5b34801561007357600080fd5b506100aa6004803603604081101561008a57600080fd5b8101908080359060200190929190803590602001909291905050506101cb565b6040518082815260200191505060405180910390f35b3480156100cc57600080fd5b50610103600480360360408110156100e357600080fd5b8101908080359060200190929190803590602001909291905050506101e7565b6040518082815260200191505060405180910390f35b34801561012557600080fd5b5061015c6004803603604081101561013c57600080fd5b81019080803590602001909291908035906020019092919050505061020b565b6040518082815260200191505060405180910390f35b34801561017e57600080fd5b506101b56004803603604081101561019557600080fd5b81019080803590602001909291908035906020019092919050505061023c565b6040518082815260200191505060405180910390f35b60008282111515156101dc57600080fd5b818303905092915050565b600080821115156101f757600080fd5b818381151561020257fe5b04905092915050565b60008183029050600083148061022b575081838281151561022857fe5b04145b151561023657600080fd5b92915050565b6000818301905082811015151561025257600080fd5b9291505056fea165627a7a72305820d6ee1bc5c5441973584ce8b48a1c2698b23c0eb95c61b552d5b7ad11f07dca780029",
  "source": "pragma solidity  >=0.4.24 <0.6.0;\r\n\r\n// import \"./Owned.sol\";\r\n// import \"./ERC20Interface.sol\";\r\n// import \"./SafeMath.sol\";\r\n\r\ncontract SafeMath {\r\n    function safeAdd(uint a, uint b) public pure returns (uint c) {\r\n        c = a + b;\r\n        require(c >= a);\r\n    }\r\n    function safeSub(uint a, uint b) public pure returns (uint c) {\r\n        require(b <= a);\r\n        c = a - b;\r\n    }\r\n    function safeMul(uint a, uint b) public pure returns (uint c) {\r\n        c = a * b;\r\n        require(a == 0 || c / a == b);\r\n    }\r\n    function safeDiv(uint a, uint b) public pure returns (uint c) {\r\n        require(b > 0);\r\n        c = a / b;\r\n    }\r\n}\r\n\r\ncontract ERC20Interface {\r\n    function totalSupply() public view returns (uint);\r\n    function balanceOf(address tokenOwner) public view returns (uint);\r\n    function allowance(address tokenOwner, address spender) public returns (uint remaining);\r\n    function transfer(address to, uint tokens) public returns (bool success);\r\n    function approve(address spender, uint tokens) public returns (bool success);\r\n    function transferFrom(address from, address to, uint tokens) public returns (bool success);\r\n\r\n    event Transfer(address indexed from, address indexed to, uint tokens);\r\n    event Approval(address indexed tokenOwner, address indexed spender, uint tokens);\r\n    event Burn(address indexed from, uint value);\r\n}\r\n\r\ncontract ApproveAndCallFallBack {\r\n    function receiveApproval(address from, uint256 tokens, address token, bytes memory data) public;\r\n}\r\n\r\n\r\ncontract Owned {\r\n    address public owner;\r\n    address public newOwner;\r\n\r\n    event OwnershipTransferred(address indexed _from, address indexed _to);\r\n\r\n    constructor() public {\r\n        owner = msg.sender;\r\n    }\r\n\r\n    modifier onlyOwner {\r\n        require(msg.sender == owner);\r\n        _;\r\n    }\r\n\r\n    function transferOwnership(address _newOwner) public onlyOwner {\r\n        newOwner = _newOwner;\r\n    }\r\n    function acceptOwnership() public {\r\n        require(msg.sender == newOwner);\r\n        emit OwnershipTransferred(owner, newOwner);\r\n        owner = newOwner;\r\n        newOwner = address(0);\r\n    }\r\n}\r\n\r\ncontract AmaCoin is ERC20Interface, Owned, SafeMath {\r\n    string public symbol;\r\n    string public  name;\r\n    uint8 public decimals;\r\n    uint public _totalSupply;\r\n\r\n\r\n    struct Employee {\r\n      string email;\r\n      address addressId;\r\n      string password;\r\n      string position;\r\n      string firstname;\r\n      string lastname;\r\n    }\r\n\r\n    Employee[] public employees;\r\n\r\n    uint public employeecount;\r\n\r\n    mapping(address => uint) public balances;    //default as private if not explicitly declare\r\n    mapping(address => mapping(address => uint)) allowed;\r\n    mapping (string => Employee) employes;\r\n\r\n    event createEmployeeEvent(string email, address addressId, string password, string position, string lastname, string firstname);\r\n\r\n    constructor() public {\r\n        symbol = \"A$\";  //our coin's symbol\r\n        name = \"AmaCoin\"; //our coin's name\r\n        decimals = 18;\r\n        _totalSupply = 1000000000;\r\n        balances[msg.sender] = _totalSupply;\r\n        emit Transfer(address(0), msg.sender, _totalSupply);\r\n    }\r\n\r\n    function createEmployee(string memory email, address addressId, string memory password, string memory position,\r\n                            string memory lastname, string memory firstname) public returns (uint) {\r\n    //  function createEmployee(string memory email, address addressId, string memory password, string memory position) public returns (bool success) {\r\n        employeecount++;\r\n        employes[email] = Employee(email, addressId, password, position, lastname, firstname);\r\n      //  employes[email] = Employee(email, addressId, password, position);\r\n        employees.push(Employee(email, addressId, password, position, lastname, firstname));\r\n        emit createEmployeeEvent(email, addressId, password, position, lastname, firstname);\r\n      return employeecount++;\r\n    }\r\n\r\n\r\n    function totalSupply() public view returns (uint) {\r\n        return _totalSupply  - balances[address(0)];\r\n    }\r\n\r\n    function balanceOf(address tokenOwner) public view returns (uint) {\r\n        return balances[tokenOwner];\r\n    }\r\n\r\n    // function getEmployeeByEmail(string memory email) public view returns (string memory , address, string memory, string memory, string memory, string memory){\r\n    //   Employee memory e = employes[email];\r\n    //   return (e.email, e.addressId, e.password, e.position, e.firstname, e.lastname);\r\n    // }\r\n\r\n    function getEmployeeByEmail(string memory email) public view returns (string memory mail , address addressId, string memory password, string memory position,string memory firstname, string memory lastname){\r\n      Employee memory e = employes[email];\r\n      return (e.email, e.addressId, e.password, e.position, e.firstname, e.lastname);\r\n    }\r\n\r\n\r\n    function transfer(address to, uint tokens) public returns (bool success) {\r\n        balances[msg.sender] = safeSub(balances[msg.sender], tokens);\r\n        balances[to] = safeAdd(balances[to], tokens);\r\n        emit Transfer(msg.sender, to, tokens);\r\n        return true;\r\n    }\r\n\r\n\r\n\r\n    function approve(address spender, uint tokens) public returns (bool success) {\r\n        allowed[msg.sender][spender] = tokens;\r\n        emit Approval(msg.sender, spender, tokens);\r\n        return true;\r\n    }\r\n\r\n\r\n    function transferFrom(address from, address to, uint tokens) public returns (bool success) {\r\n        balances[from] = safeSub(balances[from], tokens);\r\n        allowed[from][msg.sender] = safeSub(allowed[from][msg.sender], tokens);\r\n        balances[to] = safeAdd(balances[to], tokens);\r\n        emit Transfer(from, to, tokens);\r\n        return true;\r\n    }\r\n\r\n    function transferToken(address from, address to, uint tokens) public returns (bool success) {\r\n        balances[from] = safeSub(balances[from], tokens);\r\n        balances[to] = safeAdd(balances[to], tokens);\r\n        emit Transfer(from, to, tokens);\r\n        return true;\r\n    }\r\n\r\n\r\n    function allowance(address tokenOwner, address spender) public returns (uint remaining) {\r\n        return allowed[tokenOwner][spender];\r\n    }\r\n\r\n    function () external payable {\r\n        revert();\r\n    }\r\n\r\n\r\n    function transferAnyERC20Token(address tokenAddress, uint tokens) public onlyOwner returns (bool success) {\r\n        return ERC20Interface(tokenAddress).transfer(owner, tokens);\r\n    }\r\n\r\n}\r\n",
  "sourcePath": "C:/Users/HP/Documents/Blockchain/Ethereum/TokenManagerV2/TokenManagerV2/contracts/AmaCoin.sol",
  "compiler": {
    "name": "solc",
    "version": "0.5.0+commit.1d4f565a.Emscripten.clang"
  },
  "schemaVersion": "3.0.1",
  "updatedAt": "2019-03-13T15:53:22.404Z",
  "devdoc": {
    "methods": {}
  },
  "userdoc": {
    "methods": {}
  }
}